{
  "address": "0x5D7A3412Efe1865Bf0567Ef1CA658cCdEB31AD7D",
  "abi": [
    {
      "inputs": [
        {
          "internalType": "contract IWorldID",
          "name": "_worldId",
          "type": "address"
        },
        {
          "internalType": "string",
          "name": "_actionId",
          "type": "string"
        }
      ],
      "stateMutability": "nonpayable",
      "type": "constructor"
    },
    {
      "inputs": [],
      "name": "InvalidNullifier",
      "type": "error"
    },
    {
      "inputs": [],
      "name": "UserVerified",
      "type": "error"
    },
    {
      "anonymous": false,
      "inputs": [
        {
          "indexed": false,
          "internalType": "uint256",
          "name": "identityCommitment",
          "type": "uint256"
        },
        {
          "indexed": false,
          "internalType": "string",
          "name": "ipfs_uri",
          "type": "string"
        },
        {
          "indexed": false,
          "internalType": "address",
          "name": "buyer_addr",
          "type": "address"
        }
      ],
      "name": "transactionSubmitted",
      "type": "event"
    },
    {
      "inputs": [],
      "name": "getCurrGroupId",
      "outputs": [
        {
          "internalType": "uint256",
          "name": "",
          "type": "uint256"
        }
      ],
      "stateMutability": "view",
      "type": "function"
    },
    {
      "inputs": [],
      "name": "getWorldIDAddr",
      "outputs": [
        {
          "internalType": "address",
          "name": "",
          "type": "address"
        }
      ],
      "stateMutability": "view",
      "type": "function"
    },
    {
      "inputs": [],
      "name": "incrementGroupIds",
      "outputs": [],
      "stateMutability": "nonpayable",
      "type": "function"
    },
    {
      "inputs": [
        {
          "internalType": "string",
          "name": "ipfs_uri",
          "type": "string"
        },
        {
          "internalType": "uint256",
          "name": "storeSignal",
          "type": "uint256"
        },
        {
          "internalType": "uint256",
          "name": "root",
          "type": "uint256"
        },
        {
          "internalType": "uint256",
          "name": "nullifierHash",
          "type": "uint256"
        },
        {
          "internalType": "uint256[8]",
          "name": "proof",
          "type": "uint256[8]"
        }
      ],
      "name": "submitNonVerifiedUserTx",
      "outputs": [],
      "stateMutability": "nonpayable",
      "type": "function"
    },
    {
      "inputs": [
        {
          "internalType": "string",
          "name": "ipfs_uri",
          "type": "string"
        },
        {
          "internalType": "address",
          "name": "buyer_addr",
          "type": "address"
        },
        {
          "internalType": "address",
          "name": "storeSignal",
          "type": "address"
        },
        {
          "internalType": "uint256",
          "name": "root",
          "type": "uint256"
        },
        {
          "internalType": "uint256",
          "name": "nullifierHash",
          "type": "uint256"
        },
        {
          "internalType": "uint256[8]",
          "name": "proof",
          "type": "uint256[8]"
        }
      ],
      "name": "submitVerifiedTx",
      "outputs": [],
      "stateMutability": "nonpayable",
      "type": "function"
    },
    {
      "inputs": [
        {
          "internalType": "address",
          "name": "callerAddr",
          "type": "address"
        },
        {
          "internalType": "uint256",
          "name": "root",
          "type": "uint256"
        },
        {
          "internalType": "uint256",
          "name": "nullifierHash",
          "type": "uint256"
        },
        {
          "internalType": "uint256[8]",
          "name": "proof",
          "type": "uint256[8]"
        }
      ],
      "name": "verifyUser",
      "outputs": [],
      "stateMutability": "nonpayable",
      "type": "function"
    }
  ],
  "transactionHash": "0xdfb4b67fa4a93999f21e6a5dd0ff99f31511b24bbce491c6c318e1ddeedfa751",
  "args": [
    "0x4Eae71f41BcC95B25Ea832fe4c2f85dEb95beB29",
    "wid_test_1234"
  ],
  "numDeployments": 2,
  "solcInputHash": "141d4d1bc3e0f1ac50b4b1370cfdd2d5",
  "bytecode": "0x60e0604052600160c0908152503480156200001957600080fd5b50604051620014a0380380620014a083398181016040528101906200003f919062000308565b8173ffffffffffffffffffffffffffffffffffffffff1660808173ffffffffffffffffffffffffffffffffffffffff1681525050620000aa816040516020016200008a9190620003bb565b604051602081830303815290604052620000b960201b620007bc1760201c565b60a0818152505050506200043a565b6000600882604051602001620000d0919062000421565b6040516020818303038152906040528051906020012060001c901c9050919050565b6000604051905090565b600080fd5b600080fd5b600073ffffffffffffffffffffffffffffffffffffffff82169050919050565b6000620001338262000106565b9050919050565b6000620001478262000126565b9050919050565b62000159816200013a565b81146200016557600080fd5b50565b60008151905062000179816200014e565b92915050565b600080fd5b600080fd5b6000601f19601f8301169050919050565b7f4e487b7100000000000000000000000000000000000000000000000000000000600052604160045260246000fd5b620001d48262000189565b810181811067ffffffffffffffff82111715620001f657620001f56200019a565b5b80604052505050565b60006200020b620000f2565b9050620002198282620001c9565b919050565b600067ffffffffffffffff8211156200023c576200023b6200019a565b5b620002478262000189565b9050602081019050919050565b60005b838110156200027457808201518184015260208101905062000257565b8381111562000284576000848401525b50505050565b6000620002a16200029b846200021e565b620001ff565b905082815260208101848484011115620002c057620002bf62000184565b5b620002cd84828562000254565b509392505050565b600082601f830112620002ed57620002ec6200017f565b5b8151620002ff8482602086016200028a565b91505092915050565b60008060408385031215620003225762000321620000fc565b5b6000620003328582860162000168565b925050602083015167ffffffffffffffff81111562000356576200035562000101565b5b6200036485828601620002d5565b9150509250929050565b600081519050919050565b600081905092915050565b600062000391826200036e565b6200039d818562000379565b9350620003af81856020860162000254565b80840191505092915050565b6000620003c9828462000384565b915081905092915050565b600081519050919050565b600081905092915050565b6000620003f782620003d4565b620004038185620003df565b93506200041581856020860162000254565b80840191505092915050565b60006200042f8284620003ea565b915081905092915050565b60805160a05160c0516110056200049b600039600081816102600152818161046e01526106be0152600081816102aa015281816104b801526107080152600081816101050152818161022301528181610431015261068101526110056000f3fe608060405234801561001057600080fd5b50600436106100625760003560e01c806313aad95514610067578063376a2481146100855780636b5f4d881461008f578063b4ca1b1b146100ad578063ceeb467e146100c9578063db0fbab9146100e5575b600080fd5b61006f610101565b60405161007c91906108fb565b60405180910390f35b61008d610129565b005b610097610135565b6040516100a4919061092f565b60405180910390f35b6100c760048036038101906100c291906109dd565b610146565b005b6100e360048036038101906100de9190610b8b565b6103a3565b005b6100ff60048036038101906100fa9190610c35565b610632565b005b60007f0000000000000000000000000000000000000000000000000000000000000000905090565b61013360046107f3565b565b60006101416004610809565b905090565b60008083815260200190815260200160002060009054906101000a900460ff161561019d576040517f5d904cb200000000000000000000000000000000000000000000000000000000815260040160405180910390fd5b600160003373ffffffffffffffffffffffffffffffffffffffff1673ffffffffffffffffffffffffffffffffffffffff16815260200190815260200160002060009054906101000a900460ff1615610221576040517f6aa7da1600000000000000000000000000000000000000000000000000000000815260040160405180910390fd5b7f000000000000000000000000000000000000000000000000000000000000000073ffffffffffffffffffffffffffffffffffffffff16633bc778e3847f00000000000000000000000000000000000000000000000000000000000000006102a7886040516020016102939190610d15565b6040516020818303038152906040526107bc565b867f0000000000000000000000000000000000000000000000000000000000000000876040518763ffffffff1660e01b81526004016102eb96959493929190610d41565b60006040518083038186803b15801561030357600080fd5b505afa158015610317573d6000803e3d6000fd5b50505050600160008084815260200190815260200160002060006101000a81548160ff02191690831515021790555060018060003373ffffffffffffffffffffffffffffffffffffffff1673ffffffffffffffffffffffffffffffffffffffff16815260200190815260200160002060006101000a81548160ff02191690831515021790555050505050565b600160008673ffffffffffffffffffffffffffffffffffffffff1673ffffffffffffffffffffffffffffffffffffffff16815260200190815260200160002060009054906101000a900460ff1661042f576040517f08c379a000000000000000000000000000000000000000000000000000000000815260040161042690610e00565b60405180910390fd5b7f000000000000000000000000000000000000000000000000000000000000000073ffffffffffffffffffffffffffffffffffffffff16633bc778e3847f00000000000000000000000000000000000000000000000000000000000000006104b5886040516020016104a19190610d15565b6040516020818303038152906040526107bc565b867f0000000000000000000000000000000000000000000000000000000000000000876040518763ffffffff1660e01b81526004016104f996959493929190610d41565b60006040518083038186803b15801561051157600080fd5b505afa158015610525573d6000803e3d6000fd5b505050506002600083815260200190815260200160002086908060018154018082558091505060019003906000526020600020016000909190919091509080519060200190610575929190610817565b50600360008673ffffffffffffffffffffffffffffffffffffffff1673ffffffffffffffffffffffffffffffffffffffff168152602001908152602001600020869080600181540180825580915050600190039060005260206000200160009091909190915090805190602001906105ee929190610817565b507f2b473b3a4e32db50f43e1794a8afedfb90d7e1d8b2069690b13eb53793543ef282878760405161062293929190610e97565b60405180910390a1505050505050565b600260008381526020019081526020016000208590806001815401808255809150506001900390600052602060002001600090919091909150908051906020019061067e929190610817565b507f000000000000000000000000000000000000000000000000000000000000000073ffffffffffffffffffffffffffffffffffffffff16633bc778e3847f0000000000000000000000000000000000000000000000000000000000000000610705886040516020016106f19190610ef6565b6040516020818303038152906040526107bc565b867f0000000000000000000000000000000000000000000000000000000000000000876040518763ffffffff1660e01b815260040161074996959493929190610d41565b60006040518083038186803b15801561076157600080fd5b505afa158015610775573d6000803e3d6000fd5b505050507f2b473b3a4e32db50f43e1794a8afedfb90d7e1d8b2069690b13eb53793543ef2828660006040516107ad93929190610e97565b60405180910390a15050505050565b60006008826040516020016107d19190610f58565b6040516020818303038152906040528051906020012060001c901c9050919050565b6001816000016000828254019250508190555050565b600081600001549050919050565b82805461082390610f9e565b90600052602060002090601f016020900481019282610845576000855561088c565b82601f1061085e57805160ff191683800117855561088c565b8280016001018555821561088c579182015b8281111561088b578251825591602001919060010190610870565b5b509050610899919061089d565b5090565b5b808211156108b657600081600090555060010161089e565b5090565b600073ffffffffffffffffffffffffffffffffffffffff82169050919050565b60006108e5826108ba565b9050919050565b6108f5816108da565b82525050565b600060208201905061091060008301846108ec565b92915050565b6000819050919050565b61092981610916565b82525050565b60006020820190506109446000830184610920565b92915050565b6000604051905090565b600080fd5b600080fd5b610967816108da565b811461097257600080fd5b50565b6000813590506109848161095e565b92915050565b61099381610916565b811461099e57600080fd5b50565b6000813590506109b08161098a565b92915050565b600080fd5b6000819050826020600802820111156109d7576109d66109b6565b5b92915050565b60008060008061016085870312156109f8576109f7610954565b5b6000610a0687828801610975565b9450506020610a17878288016109a1565b9350506040610a28878288016109a1565b9250506060610a39878288016109bb565b91505092959194509250565b600080fd5b600080fd5b6000601f19601f8301169050919050565b7f4e487b7100000000000000000000000000000000000000000000000000000000600052604160045260246000fd5b610a9882610a4f565b810181811067ffffffffffffffff82111715610ab757610ab6610a60565b5b80604052505050565b6000610aca61094a565b9050610ad68282610a8f565b919050565b600067ffffffffffffffff821115610af657610af5610a60565b5b610aff82610a4f565b9050602081019050919050565b82818337600083830152505050565b6000610b2e610b2984610adb565b610ac0565b905082815260208101848484011115610b4a57610b49610a4a565b5b610b55848285610b0c565b509392505050565b600082601f830112610b7257610b71610a45565b5b8135610b82848260208601610b1b565b91505092915050565b6000806000806000806101a08789031215610ba957610ba8610954565b5b600087013567ffffffffffffffff811115610bc757610bc6610959565b5b610bd389828a01610b5d565b9650506020610be489828a01610975565b9550506040610bf589828a01610975565b9450506060610c0689828a016109a1565b9350506080610c1789828a016109a1565b92505060a0610c2889828a016109bb565b9150509295509295509295565b60008060008060006101808688031215610c5257610c51610954565b5b600086013567ffffffffffffffff811115610c7057610c6f610959565b5b610c7c88828901610b5d565b9550506020610c8d888289016109a1565b9450506040610c9e888289016109a1565b9350506060610caf888289016109a1565b9250506080610cc0888289016109bb565b9150509295509295909350565b60008160601b9050919050565b6000610ce582610ccd565b9050919050565b6000610cf782610cda565b9050919050565b610d0f610d0a826108da565b610cec565b82525050565b6000610d218284610cfe565b60148201915081905092915050565b610d3d6101008383610b0c565b5050565b60006101a082019050610d576000830189610920565b610d646020830188610920565b610d716040830187610920565b610d7e6060830186610920565b610d8b6080830185610920565b610d9860a0830184610d30565b979650505050505050565b600082825260208201905092915050565b7f55736572206861736e74206265656e2076657269666965640000000000000000600082015250565b6000610dea601883610da3565b9150610df582610db4565b602082019050919050565b60006020820190508181036000830152610e1981610ddd565b9050919050565b600081519050919050565b60005b83811015610e49578082015181840152602081019050610e2e565b83811115610e58576000848401525b50505050565b6000610e6982610e20565b610e738185610da3565b9350610e83818560208601610e2b565b610e8c81610a4f565b840191505092915050565b6000606082019050610eac6000830186610920565b8181036020830152610ebe8185610e5e565b9050610ecd60408301846108ec565b949350505050565b6000819050919050565b610ef0610eeb82610916565b610ed5565b82525050565b6000610f028284610edf565b60208201915081905092915050565b600081519050919050565b600081905092915050565b6000610f3282610f11565b610f3c8185610f1c565b9350610f4c818560208601610e2b565b80840191505092915050565b6000610f648284610f27565b915081905092915050565b7f4e487b7100000000000000000000000000000000000000000000000000000000600052602260045260246000fd5b60006002820490506001821680610fb657607f821691505b602082108103610fc957610fc8610f6f565b5b5091905056fea26469706673582212208479e37ea53c0c741655f0792fb04fc35b85279645d94aaccb0bddf922a7af7164736f6c634300080d0033",
  "devdoc": {
    "kind": "dev",
    "methods": {
      "constructor": {
        "params": {
          "_actionId": "The action ID for your application",
          "_worldId": "The WorldID instance that will verify the proofs"
        }
      },
      "submitNonVerifiedUserTx(string,uint256,uint256,uint256,uint256[8])": {
        "details": "if store is verified"
      },
      "submitVerifiedTx(string,address,address,uint256,uint256,uint256[8])": {
        "details": "iff user and store are both verified"
      }
    },
    "stateVariables": {
      "actionId": {
        "details": "The application's action ID"
      },
      "groupId": {
        "details": "The WorldID group ID (1)"
      },
      "nullifierHashes": {
        "details": "Whether a nullifier hash has been used already. Used to prevent double-signaling"
      },
      "worldId": {
        "details": "The WorldID instance that will be used for verifying proofs"
      }
    },
    "version": 1
  },
  "userdoc": {
    "errors": {
      "InvalidNullifier()": [
        {
          "notice": "Thrown when attempting to reuse a nullifier"
        }
      ]
    },
    "kind": "user",
    "methods": {},
    "version": 1
  },
  "storageLayout": {
    "storage": [
      {
        "astId": 116,
        "contract": "contracts/JomTx.sol:JomTx",
        "label": "nullifierHashes",
        "offset": 0,
        "slot": "0",
        "type": "t_mapping(t_uint256,t_bool)"
      },
      {
        "astId": 120,
        "contract": "contracts/JomTx.sol:JomTx",
        "label": "registeredUser",
        "offset": 0,
        "slot": "1",
        "type": "t_mapping(t_address,t_bool)"
      },
      {
        "astId": 125,
        "contract": "contracts/JomTx.sol:JomTx",
        "label": "storeTransactions",
        "offset": 0,
        "slot": "2",
        "type": "t_mapping(t_uint256,t_array(t_string_storage)dyn_storage)"
      },
      {
        "astId": 130,
        "contract": "contracts/JomTx.sol:JomTx",
        "label": "userTransactions",
        "offset": 0,
        "slot": "3",
        "type": "t_mapping(t_address,t_array(t_string_storage)dyn_storage)"
      },
      {
        "astId": 133,
        "contract": "contracts/JomTx.sol:JomTx",
        "label": "groupIds",
        "offset": 0,
        "slot": "4",
        "type": "t_struct(Counter)5_storage"
      }
    ],
    "types": {
      "t_address": {
        "encoding": "inplace",
        "label": "address",
        "numberOfBytes": "20"
      },
      "t_array(t_string_storage)dyn_storage": {
        "base": "t_string_storage",
        "encoding": "dynamic_array",
        "label": "string[]",
        "numberOfBytes": "32"
      },
      "t_bool": {
        "encoding": "inplace",
        "label": "bool",
        "numberOfBytes": "1"
      },
      "t_mapping(t_address,t_array(t_string_storage)dyn_storage)": {
        "encoding": "mapping",
        "key": "t_address",
        "label": "mapping(address => string[])",
        "numberOfBytes": "32",
        "value": "t_array(t_string_storage)dyn_storage"
      },
      "t_mapping(t_address,t_bool)": {
        "encoding": "mapping",
        "key": "t_address",
        "label": "mapping(address => bool)",
        "numberOfBytes": "32",
        "value": "t_bool"
      },
      "t_mapping(t_uint256,t_array(t_string_storage)dyn_storage)": {
        "encoding": "mapping",
        "key": "t_uint256",
        "label": "mapping(uint256 => string[])",
        "numberOfBytes": "32",
        "value": "t_array(t_string_storage)dyn_storage"
      },
      "t_mapping(t_uint256,t_bool)": {
        "encoding": "mapping",
        "key": "t_uint256",
        "label": "mapping(uint256 => bool)",
        "numberOfBytes": "32",
        "value": "t_bool"
      },
      "t_string_storage": {
        "encoding": "bytes",
        "label": "string",
        "numberOfBytes": "32"
      },
      "t_struct(Counter)5_storage": {
        "encoding": "inplace",
        "label": "struct Counters.Counter",
        "members": [
          {
            "astId": 4,
            "contract": "contracts/JomTx.sol:JomTx",
            "label": "_value",
            "offset": 0,
            "slot": "0",
            "type": "t_uint256"
          }
        ],
        "numberOfBytes": "32"
      },
      "t_uint256": {
        "encoding": "inplace",
        "label": "uint256",
        "numberOfBytes": "32"
      }
    }
  }
}